{
  "_format": "hh-sol-artifact-1",
  "contractName": "Upload",
  "sourceName": "contracts/Lock.sol",
  "abi": [
    {
      "inputs": [
        {
          "internalType": "address",
          "name": "_user",
          "type": "address"
        },
        {
          "internalType": "string",
          "name": "url",
          "type": "string"
        }
      ],
      "name": "add",
      "outputs": [],
      "stateMutability": "nonpayable",
      "type": "function"
    },
    {
      "inputs": [
        {
          "internalType": "address",
          "name": "user",
          "type": "address"
        }
      ],
      "name": "allow",
      "outputs": [],
      "stateMutability": "nonpayable",
      "type": "function"
    },
    {
      "inputs": [
        {
          "internalType": "address",
          "name": "user",
          "type": "address"
        }
      ],
      "name": "disallow",
      "outputs": [],
      "stateMutability": "nonpayable",
      "type": "function"
    },
    {
      "inputs": [
        {
          "internalType": "address",
          "name": "_user",
          "type": "address"
        }
      ],
      "name": "display",
      "outputs": [
        {
          "internalType": "string[]",
          "name": "",
          "type": "string[]"
        }
      ],
      "stateMutability": "view",
      "type": "function"
    },
    {
      "inputs": [],
      "name": "shareAccess",
      "outputs": [
        {
          "components": [
            {
              "internalType": "address",
              "name": "user",
              "type": "address"
            },
            {
              "internalType": "bool",
              "name": "access",
              "type": "bool"
            }
          ],
          "internalType": "struct Upload.Access[]",
          "name": "",
          "type": "tuple[]"
        }
      ],
      "stateMutability": "view",
      "type": "function"
    }
  ],
  "bytecode": "0x608060405234801561001057600080fd5b50611196806100206000396000f3fe608060405234801561001057600080fd5b50600436106100575760003560e01c806336d6da551461005c578063a9ed9cb814610078578063bc8bef8114610094578063eb39113f146100b2578063ff9913e8146100e2575b600080fd5b61007660048036038101906100719190610c9d565b6100fe565b005b610092600480360381019061008d9190610cfd565b61017d565b005b61009c6103bd565b6040516100a99190610e32565b60405180910390f35b6100cc60048036038101906100c79190610cfd565b6104c6565b6040516100d99190610faf565b60405180910390f35b6100fc60048036038101906100f79190610cfd565b6106dc565b005b6000808473ffffffffffffffffffffffffffffffffffffffff1673ffffffffffffffffffffffffffffffffffffffff168152602001908152602001600020828290918060018154018082558091505060019003906000526020600020016000909192909192909192909192509190610177929190610b2d565b50505050565b60018060003373ffffffffffffffffffffffffffffffffffffffff1673ffffffffffffffffffffffffffffffffffffffff16815260200190815260200160002060008373ffffffffffffffffffffffffffffffffffffffff1673ffffffffffffffffffffffffffffffffffffffff16815260200190815260200160002060006101000a81548160ff02191690831515021790555060005b600260003373ffffffffffffffffffffffffffffffffffffffff1673ffffffffffffffffffffffffffffffffffffffff168152602001908152602001600020805490508110156103b9578173ffffffffffffffffffffffffffffffffffffffff16600260003373ffffffffffffffffffffffffffffffffffffffff1673ffffffffffffffffffffffffffffffffffffffff16815260200190815260200160002082815481106102c6576102c5610fd1565b5b9060005260206000200160000160009054906101000a900473ffffffffffffffffffffffffffffffffffffffff1673ffffffffffffffffffffffffffffffffffffffff1614156103a6576000600360003373ffffffffffffffffffffffffffffffffffffffff1673ffffffffffffffffffffffffffffffffffffffff16815260200190815260200160002060008473ffffffffffffffffffffffffffffffffffffffff1673ffffffffffffffffffffffffffffffffffffffff16815260200190815260200160002060006101000a81548160ff0219169083151502179055505b80806103b190611039565b915050610214565b5050565b6060600260003373ffffffffffffffffffffffffffffffffffffffff1673ffffffffffffffffffffffffffffffffffffffff168152602001908152602001600020805480602002602001604051908101604052809291908181526020016000905b828210156104bd578382906000526020600020016040518060400160405290816000820160009054906101000a900473ffffffffffffffffffffffffffffffffffffffff1673ffffffffffffffffffffffffffffffffffffffff1673ffffffffffffffffffffffffffffffffffffffff1681526020016000820160149054906101000a900460ff1615151515815250508152602001906001019061041e565b50505050905090565b60603373ffffffffffffffffffffffffffffffffffffffff168273ffffffffffffffffffffffffffffffffffffffff1614806105885750600160008373ffffffffffffffffffffffffffffffffffffffff1673ffffffffffffffffffffffffffffffffffffffff16815260200190815260200160002060003373ffffffffffffffffffffffffffffffffffffffff1673ffffffffffffffffffffffffffffffffffffffff16815260200190815260200160002060009054906101000a900460ff165b6105c7576040517f08c379a00000000000000000000000000000000000000000000000000000000081526004016105be906110df565b60405180910390fd5b6000808373ffffffffffffffffffffffffffffffffffffffff1673ffffffffffffffffffffffffffffffffffffffff168152602001908152602001600020805480602002602001604051908101604052809291908181526020016000905b828210156106d15783829060005260206000200180546106449061112e565b80601f01602080910402602001604051908101604052809291908181526020018280546106709061112e565b80156106bd5780601f10610692576101008083540402835291602001916106bd565b820191906000526020600020905b8154815290600101906020018083116106a057829003601f168201915b505050505081526020019060010190610625565b505050509050919050565b60018060003373ffffffffffffffffffffffffffffffffffffffff1673ffffffffffffffffffffffffffffffffffffffff16815260200190815260200160002060008373ffffffffffffffffffffffffffffffffffffffff1673ffffffffffffffffffffffffffffffffffffffff16815260200190815260200160002060006101000a81548160ff0219169083151502179055506001600360003373ffffffffffffffffffffffffffffffffffffffff1673ffffffffffffffffffffffffffffffffffffffff16815260200190815260200160002060008373ffffffffffffffffffffffffffffffffffffffff1673ffffffffffffffffffffffffffffffffffffffff16815260200190815260200160002060006101000a81548160ff0219169083151502179055156109995760005b600260003373ffffffffffffffffffffffffffffffffffffffff1673ffffffffffffffffffffffffffffffffffffffff16815260200190815260200160002080549050811015610993578173ffffffffffffffffffffffffffffffffffffffff16600260003373ffffffffffffffffffffffffffffffffffffffff1673ffffffffffffffffffffffffffffffffffffffff16815260200190815260200160002082815481106108be576108bd610fd1565b5b9060005260206000200160000160009054906101000a900473ffffffffffffffffffffffffffffffffffffffff1673ffffffffffffffffffffffffffffffffffffffff161415610980576001600260003373ffffffffffffffffffffffffffffffffffffffff1673ffffffffffffffffffffffffffffffffffffffff168152602001908152602001600020828154811061095b5761095a610fd1565b5b9060005260206000200160000160146101000a81548160ff0219169083151502179055505b808061098b90611039565b91505061080c565b50610b2a565b600260003373ffffffffffffffffffffffffffffffffffffffff1673ffffffffffffffffffffffffffffffffffffffff16815260200190815260200160002060405180604001604052808373ffffffffffffffffffffffffffffffffffffffff168152602001600115158152509080600181540180825580915050600190039060005260206000200160009091909190915060008201518160000160006101000a81548173ffffffffffffffffffffffffffffffffffffffff021916908373ffffffffffffffffffffffffffffffffffffffff16021790555060208201518160000160146101000a81548160ff02191690831515021790555050506001600360003373ffffffffffffffffffffffffffffffffffffffff1673ffffffffffffffffffffffffffffffffffffffff16815260200190815260200160002060008373ffffffffffffffffffffffffffffffffffffffff1673ffffffffffffffffffffffffffffffffffffffff16815260200190815260200160002060006101000a81548160ff0219169083151502179055505b50565b828054610b399061112e565b90600052602060002090601f016020900481019282610b5b5760008555610ba2565b82601f10610b7457803560ff1916838001178555610ba2565b82800160010185558215610ba2579182015b82811115610ba1578235825591602001919060010190610b86565b5b509050610baf9190610bb3565b5090565b5b80821115610bcc576000816000905550600101610bb4565b5090565b600080fd5b600080fd5b600073ffffffffffffffffffffffffffffffffffffffff82169050919050565b6000610c0582610bda565b9050919050565b610c1581610bfa565b8114610c2057600080fd5b50565b600081359050610c3281610c0c565b92915050565b600080fd5b600080fd5b600080fd5b60008083601f840112610c5d57610c5c610c38565b5b8235905067ffffffffffffffff811115610c7a57610c79610c3d565b5b602083019150836001820283011115610c9657610c95610c42565b5b9250929050565b600080600060408486031215610cb657610cb5610bd0565b5b6000610cc486828701610c23565b935050602084013567ffffffffffffffff811115610ce557610ce4610bd5565b5b610cf186828701610c47565b92509250509250925092565b600060208284031215610d1357610d12610bd0565b5b6000610d2184828501610c23565b91505092915050565b600081519050919050565b600082825260208201905092915050565b6000819050602082019050919050565b610d5f81610bfa565b82525050565b60008115159050919050565b610d7a81610d65565b82525050565b604082016000820151610d966000850182610d56565b506020820151610da96020850182610d71565b50505050565b6000610dbb8383610d80565b60408301905092915050565b6000602082019050919050565b6000610ddf82610d2a565b610de98185610d35565b9350610df483610d46565b8060005b83811015610e25578151610e0c8882610daf565b9750610e1783610dc7565b925050600181019050610df8565b5085935050505092915050565b60006020820190508181036000830152610e4c8184610dd4565b905092915050565b600081519050919050565b600082825260208201905092915050565b6000819050602082019050919050565b600081519050919050565b600082825260208201905092915050565b60005b83811015610eba578082015181840152602081019050610e9f565b83811115610ec9576000848401525b50505050565b6000601f19601f8301169050919050565b6000610eeb82610e80565b610ef58185610e8b565b9350610f05818560208601610e9c565b610f0e81610ecf565b840191505092915050565b6000610f258383610ee0565b905092915050565b6000602082019050919050565b6000610f4582610e54565b610f4f8185610e5f565b935083602082028501610f6185610e70565b8060005b85811015610f9d5784840389528151610f7e8582610f19565b9450610f8983610f2d565b925060208a01995050600181019050610f65565b50829750879550505050505092915050565b60006020820190508181036000830152610fc98184610f3a565b905092915050565b7f4e487b7100000000000000000000000000000000000000000000000000000000600052603260045260246000fd5b7f4e487b7100000000000000000000000000000000000000000000000000000000600052601160045260246000fd5b6000819050919050565b60006110448261102f565b91507fffffffffffffffffffffffffffffffffffffffffffffffffffffffffffffffff82141561107757611076611000565b5b600182019050919050565b600082825260208201905092915050565b7f596f7520646f6e74206861766520616363657373000000000000000000000000600082015250565b60006110c9601483611082565b91506110d482611093565b602082019050919050565b600060208201905081810360008301526110f8816110bc565b9050919050565b7f4e487b7100000000000000000000000000000000000000000000000000000000600052602260045260246000fd5b6000600282049050600182168061114657607f821691505b6020821081141561115a576111596110ff565b5b5091905056fea2646970667358221220a910dcc07bffc6c9641dc8e164a4ace64754464ab642276490d7b0868f45708a64736f6c63430008090033",
  "linkReferences": {},
  "deployedLinkReferences": {}
}